000INFRACOMMERCE NEGOCIOS E SOLUCOES E00084 - FLYDEL EXPRESSA            1809171643NOT180916430                                                                                                                                                 
310NOTFI180916430                                                                                                                                                                                                                               
31115427207000203298167930119   RUA JOSE SEMIAO RODRIGUES AGOSTINHO , 13EMBU DAS ARTES                     06883300 SP       180920173 CORACOES - INFRACOMMERCE NEGOCIOS E SO                                                                   
312TESTE RENAN                             60088434524                  AVENIDA FRANCISCO MATARAZZO, 1500 - 20 AAGUA BRANCA         SAO PAULO                          05001100          SP                                              2      
31349891                    C0350000704618092017               VOLUMES        0000100000000000019333000000500000SN000000000000000000000000000000       N000000000001353000000000000000000000000000000000000000001353I000000003480000000000000N3517091542720700020355035000007046100000595510WEB-1
31349891                    C0350000704718092017               VOLUMES        0000100000000000019333000000500000SN000000000000000000000000000000       N000000000001353000000000000000000000000000000000000000001353I000000003480000000000000N3517091542720700020355035000007047100000595210WEB-1
318000000000019333000000000000005000000000000000000000000000100000000000000000000000000000000                                                                                                                                                   
