000FLAYDEL LOG                        STAPLES DO BRASIL                  0310111728OCO031017280               
340OCORR031017280                                                                                             
34101777345000187FLAYDEL LOG                                                                                  
34200000000000000   238428  0103102011140403                                                                  
34200000000000000   238468  0103102011083303                                                                  
34200000000000000   238473  0103102011114703                                                                  
34200000000000000   238474  0103102011114603                                                                  
34200000000000000   238319  0103102011100903                                                                  
34200000000000000   238358  0103102011115803                                                                  
34200000000000000   238383  0103102011083103                                                                  
34200000000000000   238385  0103102011101003                                                                  
34200000000000000   238583  0103102011132903                                                                  
34200000000000000   238605  0103102011142003                                                                  
34200000000000000   238652  0103102011143803                                                                  
34200000000000000   238656  0103102011122303                                                                  
34200000000000000   238665  0103102011082503                                                                  
34200000000000000   238668  0103102011131703                                                                  
34200000000000000   238759  0103102011093103                                                                  
34200000000000000   238760  0103102011123503                                                                  
34200000000000000   238761  0103102011123203                                                                  
34200000000000000   238773  0103102011102003                                                                  
34200000000000000   238698  0103102011144003                                                                  
34200000000000000   238716  0103102011123303                                                                  
34200000000000000   238719  0103102011152003                                                                  
34200000000000000   238720  0103102011145003                                                                  
34200000000000000   238724  0103102011152003                                                                  
34200000000000000   238775  0103102011150003                                                                  
34200000000000000   238781  0103102011143203                                                                  
34200000000000000   238789  0103102011131103                                                                  
34200000000000000   238807  0103102011133003                                                                  
34200000000000000   238883  0103102011085903                                                                  
34200000000000000   238875  0103102011125103                                                                  
34200000000000000   238879  0103102011123203                                                                  
34200000000000000   238893  0103102011104503                                                                  
34200000000000000   238894  0103102011104603                                                                  
34200000000000000   238895  0103102011104503                                                                  
34200000000000000   238896  0103102011104403                                                                  
34200000000000000   238915  0103102011113103                                                                  
34200000000000000   238934  0103102011104703                                                                  
34200000000000000   239011  0103102011091303                                                                  
34200000000000000   239053  0103102011113003                                                                  
34200000000000000   239057  0103102011102003                                                                  
34200000000000000   239058  0103102011102103                                                                  
34200000000000000   239072  0103102011133703                                                                  
34200000000000000   239073  0103102011150103                                                                  
34200000000000000   239089  0103102011134903                                                                  
34200000000000000   239117  0103102011090103                                                                  
34200000000000000   239168  0103102011092203                                                                  
34200000000000000   239229  0103102011092803                                                                  
34200000000000000   239207  0103102011103603                                                                  
34200000000000000   239208  0603102011115303                                                                  
34200000000000000   239210  0103102011145003                                                                  
34200000000000000   239211  0103102011122403                                                                  
34200000000000000   239247  0103102011131003                                                                  
34200000000000000   239248  0103102011111603                                                                  
34200000000000000   239327  0103102011120103                                                                  
34200000000000000   239279  2003102011121703                                                                  
34200000000000000   239291  0103102011134503                                                                  
34200000000000000   239321  0103102011115103                                                                  
34200000000000000   239417  0103102011083003                                                                  
34200000000000000   239432  0103102011140503                                                                  
34200000000000000   239438  0103102011150303                                                                  
34200000000000000   238343  0103102011111403                                                                  
34200000000000000   238368  0103102011123803                                                                  
34200000000000000   238379  0103102011102103                                                                  
34200000000000000   238392  0103102011114903                                                                  
34200000000000000   238396  0103102011153703                                                                  
34200000000000000   238397  0103102011102403                                                                  
34200000000000000   238406  0103102011075303                                                                  
34200000000000000   238486  0103102011111903                                                                  
34200000000000000   238554  0103102011102503                                                                  
34200000000000000   238555  0103102011083403                                                                  
34200000000000000   238585  4603102011093403                                                                  
34200000000000000   238586  0103102011145303                                                                  
34200000000000000   238589  0103102011102103                                                                  
34200000000000000   238614  0103102011123303                                                                  
34200000000000000   238618  0103102011122103                                                                  
34200000000000000   238633  0103102011122303                                                                  
34200000000000000   238634  0103102011102203                                                                  
34200000000000000   238670  0103102011113603                                                                  
34200000000000000   238682  0103102011102703                                                                  
34200000000000000   238685  0103102011114903                                                                  
34200000000000000   238694  0103102011094603                                                                  
34200000000000000   238695  0103102011102303                                                                  
34200000000000000   238756  0103102011083003                                                                  
34200000000000000   238710  0103102011094003                                                                  
34200000000000000   238726  0103102011144503                                                                  
34200000000000000   238745  0103102011145403                                                                  
34200000000000000   238747  0103102011111303                                                                  
34200000000000000   238776  0103102011144303                                                                  
34200000000000000   238813  0103102011094703                                                                  
34200000000000000   238784  0103102011145103                                                                  
34200000000000000   238884  0103102011103103                                                                  
34200000000000000   238885  0103102011131503                                                                  
34200000000000000   238878  0103102011125903                                                                  
34200000000000000   238905  0103102011104603                                                                  
34200000000000000   238906  0103102011113703                                                                  
34200000000000000   238923  0103102011125403                                                                  
34200000000000000   238924  0103102011080903                                                                  
34200000000000000   238928  0103102011115103                                                                  
34200000000000000   238962  0103102011122203                                                                  
34200000000000000   238965  0103102011145003                                                                  
34200000000000000   238976  0103102011144003                                                                  
34200000000000000   238992  0103102011150203                                                                  
34200000000000000   239035  0103102011121903                                                                  
34200000000000000   239036  0103102011102503                                                                  
34200000000000000   239000  0103102011103103                                                                  
34200000000000000   239004  0103102011111103                                                                  
34200000000000000   239021  0103102011115103                                                                  
34200000000000000   239022  0103102011111503                                                                  
34200000000000000   239045  0103102011115303                                                                  
34200000000000000   239048  0103102011095603                                                                  
34200000000000000   239059  0103102011095003                                                                  
34200000000000000   239069  0103102011120403                                                                  
34200000000000000   239079  0103102011151303                                                                  
34200000000000000   239104  0103102011111303                                                                  
34200000000000000   239111  0103102011114803                                                                  
34200000000000000   239121  0103102011122403                                                                  
34200000000000000   239122  0103102011130203                                                                  
34200000000000000   239126  0103102011153303                                                                  
34200000000000000   239146  9903102011144203                                                                  
34200000000000000   239147  0103102011102303                                                                  
34200000000000000   239199  0103102011114703                                                                  
34200000000000000   239216  0103102011111003                                                                  
34200000000000000   239241  0103102011080503                                                                  
34200000000000000   239245  0103102011103003                                                                  
34200000000000000   239261  0103102011134303                                                                  
34200000000000000   239283  0103102011102003                                                                  
34200000000000000   239290  0103102011124503                                                                  
34200000000000000   237354  0129092011102003                                                                  
34200000000000000   239295  0103102011084103                                                                  
34200000000000000   239296  0103102011101503                                                                  
34200000000000000   239299  0103102011141103                                                                  
34200000000000000   239304  0103102011120703                                                                  
34200000000000000   239312  0103102011113603                                                                  
34200000000000000   239339  0103102011131003                                                                  
34200000000000000   239344  0103102011152803                                                                  
34200000000000000   239355  0103102011102603                                                                  
34200000000000000   239360  0103102011084103                                                                  
34200000000000000   239363  0103102011144603                                                                  
34200000000000000   239366  0103102011111003                                                                  
34200000000000000   239387  0103102011152203                                                                  
34200000000000000   239389  0103102011102203                                                                  
34200000000000000   239392  0103102011115003                                                                  
34200000000000000   239397  0103102011121803                                                                  
34200000000000000   239399  0103102011102603                                                                  
34200000000000000   239406  0103102011132803                                                                  
34200000000000000   236509  0103102011092403                                                                  
34200000000000000   534273  0130092011152003                                                                  
34200000000000000   239409  0103102011081803                                                                  
34200000000000000   239410  0103102011103203                                                                  
34200000000000000   239418  0103102011093203                                                                  
34200000000000000   239439  0103102011140803                                                                  
34200000000000000   238426  0103102011090803                                                                  
34200000000000000   238427  0103102011101803                                                                  
34200000000000000   238430  0103102011104403                                                                  
34200000000000000   238436  0103102011094803                                                                  
34200000000000000   238437  0103102011115503                                                                  
34200000000000000   238438  0103102011073403                                                                  
34200000000000000   238440  0103102011141603                                                                  
34200000000000000   238442  0103102011100403                                                                  
34200000000000000   238445  0103102011113203                                                                  
34200000000000000   238446  0103102011113003                                                                  
34200000000000000   237248  0130092011085803                                                                  
34200000000000000   238447  0103102011113303                                                                  
34200000000000000   238449  0103102011103303                                                                  
34200000000000000   238450  0103102011122003                                                                  
34200000000000000   238455  0103102011112903                                                                  
34200000000000000   37297   0130092011142803                                                                  
34200000000000000   238462  0103102011085203                                                                  
34200000000000000   238346  0103102011132303                                                                  
34200000000000000   238351  0103102011142903                                                                  
34200000000000000   238372  0103102011110803                                                                  
34200000000000000   238375  0103102011091403                                                                  
34200000000000000   238380  0103102011102303                                                                  
34200000000000000   238381  0103102011073703                                                                  
34200000000000000   238382  0103102011120503                                                                  
34200000000000000   238384  0903102011083603                                                                  
34200000000000000   238386  0103102011133603                                                                  
34200000000000000   238395  0103102011111103                                                                  
34200000000000000   237799  0130092011122003                                                                  
34200000000000000   238411  0103102011121003                                                                  
34200000000000000   238414  0103102011103303                                                                  
34200000000000000   238417  0103102011111603                                                                  
34200000000000000   238484  0103102011093003                                                                  
34200000000000000   238485  0103102011140503                                                                  
34200000000000000   238560  0103102011120703                                                                  
34200000000000000   238561  0103102011090003                                                                  
34200000000000000   238562  0103102011125203                                                                  
34200000000000000   238568  0103102011111603                                                                  
34200000000000000   238590  0103102011100303                                                                  
34200000000000000   238591  0603102011123603                                                                  
34200000000000000   238592  0103102011103903                                                                  
34200000000000000   237619  0130092011150003                                                                  
34200000000000000   37452   0130092011110003                                                                  
34200000000000000   238602  0103102011125303                                                                  
34200000000000000   37448   0130092011123203                                                                  
34200000000000000   238603  0103102011100403                                                                  
34200000000000000   238610  0103102011120203                                                                  
34200000000000000   238613  0103102011132503                                                                  
34200000000000000   238615  0103102011115603                                                                  
34200000000000000   238616  0103102011122603                                                                  
34200000000000000   238619  0103102011142803                                                                  
34200000000000000   238621  0103102011095003                                                                  
34200000000000000   238625  0103102011093103                                                                  
34200000000000000   238635  0103102011105603                                                                  
34200000000000000   238639  0103102011125603                                                                  
34200000000000000   238644  0103102011150703                                                                  
34200000000000000   238647  0103102011143503                                                                  
34200000000000000   238657  0103102011082103                                                                  
34200000000000000   238661  0103102011135603                                                                  
34200000000000000   238669  0103102011085003                                                                  
34200000000000000   238671  0103102011083003                                                                  
34200000000000000   238675  0103102011144103                                                                  
34200000000000000   238678  0103102011121403                                                                  
34200000000000000   238680  0103102011090103                                                                  
34200000000000000   238690  0103102011135803                                                                  
34200000000000000   533739  0130092011113303                                                                  
34200000000000000   37450   0130092011110403                                                                  
34200000000000000   238758  0103102011143703                                                                  
34200000000000000   238772  0103102011130103                                                                  
34200000000000000   238712  0103102011091803                                                                  
34200000000000000   238714  0103102011092903                                                                  
34200000000000000   238715  0103102011093003                                                                  
34200000000000000   238723  0103102011091703                                                                  
34200000000000000   238734  0103102011113703                                                                  
34200000000000000   238742  0103102011114203                                                                  
34200000000000000   238743  0103102011104003                                                                  
34200000000000000   238774  0103102011122103                                                                  
34200000000000000   238777  0103102011130203                                                                  
34200000000000000   238778  9903102011114903                                                                  
34200000000000000   238794  0103102011115603                                                                  
34200000000000000   238796  0103102011100603                                                                  
34200000000000000   238797  0103102011080203                                                                  
34200000000000000   238799  0103102011103703                                                                  
34200000000000000   238800  0103102011085903                                                                  
34200000000000000   238801  0103102011130403                                                                  
34200000000000000   37447   0630092011120003                                                                  
34200000000000000   37454   0130092011122003                                                                  
34200000000000000   238783  0103102011125503                                                                  
34200000000000000   238816  0103102011132303                                                                  
34200000000000000   238838  0103102011115703                                                                  
34200000000000000   238846  0103102011104603                                                                  
34200000000000000   238847  0103102011072903                                                                  
34200000000000000   238870  0103102011133303                                                                  
34200000000000000   238871  0903102011103703                                                                  
34200000000000000   238872  0103102011122203                                                                  
34200000000000000   238874  0103102011102403                                                                  
34200000000000000   238877  0103102011095503                                                                  
34200000000000000   238881  0103102011110103                                                                  
34200000000000000   238892  0103102011121503                                                                  
34200000000000000   238897  0103102011150803                                                                  
34200000000000000   238903  0103102011101603                                                                  
34200000000000000   238908  0103102011150103                                                                  
34200000000000000   238916  0103102011112903                                                                  
34200000000000000   238917  4603102011122403                                                                  
34200000000000000   238931  0103102011100103                                                                  
34200000000000000   238936  0103102011074203                                                                  
34200000000000000   238941  0103102011114403                                                                  
34200000000000000   238942  0103102011100903                                                                  
34200000000000000   238944  0103102011083803                                                                  
34200000000000000   238946  0103102011100103                                                                  
34200000000000000   238949  0103102011081403                                                                  
34200000000000000   238950  0103102011095603                                                                  
34200000000000000   238952  0103102011123703                                                                  
34200000000000000   238953  0103102011100603                                                                  
34200000000000000   238954  0103102011101303                                                                  
34200000000000000   238955  0103102011124303                                                                  
34200000000000000   238958  0103102011115003                                                                  
34200000000000000   238959  0103102011104803                                                                  
34200000000000000   238961  0103102011112503                                                                  
34200000000000000   238963  0103102011084903                                                                  
34200000000000000   238966  0103102011110403                                                                  
34200000000000000   238970  0103102011124003                                                                  
34200000000000000   238971  0103102011135603                                                                  
34200000000000000   238977  0103102011131403                                                                  
34200000000000000   238978  0103102011103403                                                                  
34200000000000000   238983  0103102011140103                                                                  
34200000000000000   238985  0103102011142103                                                                  
34200000000000000   238993  0103102011081003                                                                  
34200000000000000   238994  0103102011085003                                                                  
34200000000000000   239038  0103102011141703                                                                  
34200000000000000   239039  0103102011141603                                                                  
34200000000000000   239010  0103102011102403                                                                  
34200000000000000   238996  0103102011091203                                                                  
34200000000000000   239012  0103102011091103                                                                  
34200000000000000   239013  0103102011123703                                                                  
34200000000000000   239020  0103102011110003                                                                  
34200000000000000   239024  0103102011121103                                                                  
34200000000000000   239054  0103102011135703                                                                  
34200000000000000   239064  0103102011121603                                                                  
34200000000000000   239071  0103102011082803                                                                  
34200000000000000   239081  0103102011095203                                                                  
34200000000000000   239083  0103102011132203                                                                  
34200000000000000   239110  0103102011133003                                                                  
34200000000000000   239116  0103102011113603                                                                  
34200000000000000   239120  0103102011083203                                                                  
34200000000000000   239128  0103102011110303                                                                  
34200000000000000   239130  0103102011102403                                                                  
34200000000000000   239133  0103102011132803                                                                  
34200000000000000   239134  0103102011143403                                                                  
34200000000000000   239138  0103102011095203                                                                  
34200000000000000   239141  0103102011082803                                                                  
34200000000000000   239143  0103102011125403                                                                  
34200000000000000   239145  0103102011103303                                                                  
34200000000000000   239148  0103102011142403                                                                  
34200000000000000   239149  0103102011081903                                                                  
34200000000000000   239157  0103102011102203                                                                  
34200000000000000   239160  0103102011094703                                                                  
34200000000000000   239161  0903102011113703                                                                  
34200000000000000   239162  0103102011094703                                                                  
34200000000000000   239166  0103102011114403                                                                  
34200000000000000   239169  0103102011114203                                                                  
34200000000000000   239172  0103102011101503                                                                  
34200000000000000   239173  0103102011104803                                                                  
34200000000000000   239174  4603102011122903                                                                  
34200000000000000   239175  0103102011140603                                                                  
34200000000000000   239176  0103102011104903                                                                  
34200000000000000   239177  0103102011123203                                                                  
34200000000000000   239178  0103102011092603                                                                  
34200000000000000   239181  0103102011140103                                                                  
34200000000000000   239182  0103102011130503                                                                  
34200000000000000   239183  0103102011130603                                                                  
34200000000000000   239184  0103102011130303                                                                  
34200000000000000   239196  0103102011114503                                                                  
34200000000000000   239223  0103102011130503                                                                  
34200000000000000   239225  0103102011104903                                                                  
34200000000000000   239228  0103102011084603                                                                  
34200000000000000   239234  0103102011145103                                                                  
34200000000000000   239236  0103102011110903                                                                  
34200000000000000   239237  0103102011122503                                                                  
34200000000000000   239205  0103102011080203                                                                  
34200000000000000   37453   0130092011152203                                                                  
34200000000000000   37449   4630092011170303                                                                  
34200000000000000   239209  0103102011154103                                                                  
34200000000000000   239213  0103102011112003                                                                  
34200000000000000   239215  0103102011090403                                                                  
34200000000000000   239243  0103102011152703                                                                  
34200000000000000   239246  0103102011104503                                                                  
34200000000000000   239259  0103102011114203                                                                  
34200000000000000   239263  0103102011094403                                                                  
34200000000000000   239264  0103102011093703                                                                  
34200000000000000   239267  0103102011105103                                                                  
34200000000000000   239268  0103102011101903                                                                  
34200000000000000   239269  0103102011102003                                                                  
34200000000000000   239276  0103102011103203                                                                  
34200000000000000   239281  0103102011104903                                                                  
34200000000000000   239282  0103102011092903                                                                  
34200000000000000   239294  0103102011124303                                                                  
34200000000000000   239298  0103102011092303                                                                  
34200000000000000   239300  0103102011153903                                                                  
34200000000000000   239306  0103102011123503                                                                  
34200000000000000   239313  0103102011083103                                                                  
34200000000000000   239317  0103102011103003                                                                  
34200000000000000   239319  0103102011091103                                                                  
34200000000000000   239333  0103102011145103                                                                  
34200000000000000   37449   0103102011111003                                                                  
34200000000000000   239340  0103102011115203                                                                  
34200000000000000   239342  0103102011153203                                                                  
34200000000000000   239343  0103102011105003                                                                  
34200000000000000   239346  0103102011124203                                                                  
34200000000000000   239347  0103102011130603                                                                  
34200000000000000   37457   0130092011144403                                                                  
34200000000000000   239348  0103102011112203                                                                  
34200000000000000   239349  0103102011083003                                                                  
34200000000000000   239350  0103102011085003                                                                  
34200000000000000   239351  9903102011130703                                                                  
34200000000000000   239358  0103102011111603                                                                  
34200000000000000   239362  0603102011124503                                                                  
34200000000000000   239365  0103102011110203                                                                  
34200000000000000   239370  0103102011093103                                                                  
34200000000000000   239371  0103102011142703                                                                  
34200000000000000   239374  0103102011072003                                                                  
34200000000000000   239377  0103102011104903                                                                  
34200000000000000   239384  0103102011121903                                                                  
34200000000000000   239393  0903102011115103                                                                  
34200000000000000   239398  0103102011114503                                                                  
34200000000000000   239402  0103102011102603                                                                  
34200000000000000   239407  0103102011105103                                                                  
34200000000000000   239419  0103102011083003                                                                  
34200000000000000   239421  0103102011071203                                                                  
34200000000000000   239422  0103102011130803                                                                  
34200000000000000   239424  0103102011084903                                                                  
34200000000000000   239428  0103102011105003                                                                  
34200000000000000   239430  0103102011071903                                                                  
34200000000000000   239437  0103102011145303                                                                  
34200000000000000   35958   0103102011091603                                                                  
34200000000000000   37527   0103102011120503                                                                  
34200000000000000   37530   4603102011122603                                                                  
34200000000000000   37541   0103102011111603                                                                  
34200000000000000   237376  0103102011141203                                                                  
34200000000000000   37528   0103102011112603                                                                  
34200000000000000   237854  0403102011122003                                                                  
34200000000000000   238009  0103102011131603                                                                  
34200000000000000   238300  0103102011114803                                                                  
34200000000000000   37542   0103102011132503                                                                  
34200000000000000   534475  0103102011105003                                                                  
34200000000000000   37451   0103102011090903                                                                  
34200000000000000   37455   0103102011122703                                                                  
34200000000000000   37456   0103102011134603                                                                  
34200000000000000   237280  0103102011093903                                                                  
34200000000000000   534029  0103102011103403                                                                  
34200000000000000   237573  0103102011120303                                                                  
34200000000000000   532913  9903102011100603                                                                  
34200000000000000   534437  0103102011082803                                                                  
34200000000000000   237450  0129092011152003                                                                  
34200000000000000   236657  0130092011152003                                                                  
34200000000000000   37526   0103102011081103                                                                  
34200000000000000   37531   0103102011125903                                                                  
34200000000000000   37537   0103102011142203                                                                  
34200000000000000   37539   0103102011094003                                                                  
34200000000000000   37536   0103102011131103                                                                  
34200000000000000   37534   0103102011134503                                                                  
34200000000000000   236038  0129092011102003                                                                  
34200000000000000   235056  0103102011150103                                                                  
34200000000000000   237454  0103102011111303                                                                  
34200000000000000   239046  0103102011135803                                                                  
34200000000000000   238145  0103102011135703                                                                  
34200000000000000   235767  0130092011102003                                                                  
